:1000000000800020BD010000CD2C0000852C0000E8
:10001000852C0000852C0000852C0000852C00001C
:10002000852C0000852C0000852C0000CD2C0000C4
:10003000CD2C0000852C0000953100009932000085
:10004000CD2C0000CD2C0000CD2C0000CD2C0000CC
:10005000CD2C0000CD2C0000CD2C0000CD2C0000BC
:10006000CD2C0000CD2C0000CD2C0000CD2C0000AC
:10007000CD2C0000CD2C0000CD2C0000CD2C00009C
:10008000CD2C0000CD2C0000CD2C0000CD2C00008C
:10009000CD2C0000CD2C0000CD2C0000CD2C00007C
:1000A000C90D0000D50D0000CD2C0000CD2C0000A6
:1000B000CD2C0000CD2C0000CD2C0000CD2C00005C
:1000C000CD2C0000CD2C0000CD2C0000CD2C00004C
:1000D000CD2C0000CD2C0000CD2C0000CD2C00003C
:1000E000CD2C0000CD2C0000CD2C0000CD2C00002C
:1000F000CD2C0000052D0000CD2C0000312E00007D
:10010000CD2C00005D2F0000CD2C0000CD2C000078
:10011000CD2C0000CD2C0000CD2C0000CD2C0000FB
:10012000CD2C0000CD2C0000CD2C0000CD2C0000EB
:10013000CD2C0000CD2C0000CD2C0000CD2C0000DB
:10014000CD2C0000CD2C0000CD2C0000CD2C0000CB
:10015000CD2C0000CD2C0000CD2C0000CD2C0000BB
:10016000CD2C000019190000CD2C0000CD2C000072
:10017000CD2C0000CD2C0000CD2C0000CD2C00009B
:10018000CD2C0000CD2C0000CD2C0000CD2C00008B
:10019000CD2C0000CD2C0000CD2C0000CD2C00007B
:1001A000CD2C0000CD2C0000CD2C0000CD2C00006B
:1001B000CD2C0000CD2C0000CD2C0000564B4CF275
:1001C000205210B51A804DF628121A8000BF00BFC9
:1001D00002F080FD514B4FF010621A60504A9A6055
:1001E000504ADA60504A136813F4807304D14F49BF
:1001F0000B604FF4A85313604D4B1A78110703D5C9
:100200001A7842F008021A704A4B4B492A221A7097
:100210004A4A4B4B8B4204D252F8040F43F8040B6A
:10022000F8E7484B484900228B4202D243F8042B9E
:10023000FAE74649464A002352F8230041F82300D2
:1002400001336F2BF8D1434B434A802103F8011B44
:100250009342FBD1414B3D4A1A60414B8A221A70AE
:10026000A3F5805324225A70A0221A709A7992071B
:10027000FCD59A79D406FCD43A4A937903F00C035E
:10028000082B384BF9D103221A7140225A719A79FE
:100290009006FCD5334A9179324B4906FBD5324A58
:1002A000324911600221516020221A709A7902F0BD
:1002B0000C020C2AFAD12E4B2E4A1A602E4B2F4AD2
:1002C0001A6000225A60072243F8042C2C4AC3F813
:1002D0000C2D62B601F0D6F9144B1B68DA0705D570
:1002E000284801F055F9284B284A1A60284B1B78FA
:1002F0005B0609D5244C254B22689A4204D121483B
:1003000001F046F90023236002F0FCFF02F0E8FC54
:1003100002F0F2FBFEE700BF0E20054030800440F3
:10032000823F04000100002B10D0034014D0034092
:1003300002D0074000E007400090FF1F4036000059
:100340004088FF1F0090FF1FB896FF1F0082FF1F0D
:100350000000000000E400E05FE400E008ED00E0E1
:100360000050064000400640448004400000030165
:1003700004800440C010050014E000E0FF76010096
:1003800000002020AEA3C25D1CE00340A5C3945A28
:1003900000F00740FFFFFFFFFFFFFFFFFFFFFFFF32
:1003A000FFFFFFFFFFFFFFFFFFFFFFFFFFFFFFFF5D
:1003B000FFFFFFFFFFFFFFFFFFFFFFFFFFFFFFFF4D
:1003C000FFFFFFFFFFFFFFFFFFFFFFFFFFFFFFFF3D
:1003D000FFFFFFFFFFFFFFFFFFFFFFFFFFFFFFFF2D
:1003E000FFFFFFFFFFFFFFFFFFFFFFFFFFFFFFFF1D
:1003F000FFFFFFFFFFFFFFFFFFFFFFFFFFFFFFFF0D
:10040000FFFFFFFFFFFFFFFFFFFFFFFFDEF9FFFF23
:1004100010B5054C237833B9044B13B10448AFF33E
:1004200000800123237010BD0090FF1F000000001A
:1004300044360000084B10B51BB108490848AFF31B
:1004400000800848036803B910BD074B002BFBD0A0
:10045000BDE81040184700BF000000000490FF1FD7
:10046000443600000090FF1F0000000010B520215E
:10047000044600F0D1FC00B110BD20464FF47F01CE
:10048000BDE8104000F0C6BE002100F0C3BE00BFB2
:1004900010B50821044600F0BFFCC0B94FF47F013D
:1004A000204600F0B7FE204600F0C0FD23780B4A3E
:1004B0000933DBB2013B1B0203F47063000400F458
:1004C000FE001A431043BDE8104002F041B84FF45B
:1004D0007F41204600F09EFEE5E700BF0990007FC7
:1004E00010B5044600F0A2FD2378144A0133DBB2B4
:1004F000013B1B0203F4706300041A4300F4FE0086
:10050000104302F025F820466FF07F4100F082FE94
:10051000204600F08BFD23780133DBB2013B1B0248
:1005200003F4706343F41043000443F0090300F440
:10053000FE001843BDE8104002F00AB80990007FA1
:100540002DE9F8433548364C00F016F904F51876D5
:10055000254628464C3500F093FDB542F9D10021DF
:10056000112001F03BF801210D2001F037F8DFF8F0
:10057000BC90DFF8BC802B4F2B4E0025204622215B
:1005800000F074FD2046002100F00CFE20467F2183
:1005900000F00CFE2046002100F00CFE2046012158
:1005A00000F00CFE2046002100F034FE23212046FE
:1005B00000F0C2FD2046C4F81890C4F808806762B5
:1005C000266400F067FD4FF47F012046257000F09F
:1005D00021FE5A2001F008F84FF47F41204600F038
:1005E00019FE5A2001F000F8FF21204600F012FE0B
:1005F0005A2000F0F9FF0021204600F00BFE5A209F
:1006000000F0F2FF01352046012100F099FD082D90
:1006100004F14C04B2D1BDE8F88300BF3489FF1F58
:100620001C90FF1F6D04000089040000910400006D
:10063000E104000038B5112000F0C2FF70B90A4C87
:1006400004F51875112000F0BBFF0128204604F1C5
:100650004C0403D000F014FCAC42F3D1002001F0B4
:10066000DBFF0028FAD138BD1C90FF1F10B5154CD8
:100670000121204600F0B4FB04F14C00022100F0FF
:10068000AFFB04F19800032100F0AAFB04F1E400A1
:10069000042100F0A5FB04F59870052100F0A0FBF3
:1006A00004F5BE70062100F09BFB04F5E470072101
:1006B00000F096FB04F505700821BDE8104000F03D
:1006C0008FBB00BF1C90FF1F0020704790F839209F
:1006D00090F83800101A704790F8383090F83920A8
:1006E0009A4205D95A1C034480F83820187E704776
:1006F0004FF0FF30704700BF90F8383090F8392045
:100700009A4286BF1B18187E4FF0FF30704700BF1B
:10071000704700BF38B50546B0F85E0090B195F857
:100720005D301446C3F1210294420CD805F13B0020
:100730001844224600F072FD95F85D30234485F898
:100740005D30204638BD012014462871EEE700BF19
:10075000B0F85E306BB190F85D30202B07D8C2182E
:10076000013380F85D30012082F83B10704701238F
:1007700003710020704700BF0023426980F83830C1
:1007800080F8393080F85C3080F85D3080F85E3079
:1007900080F85F3006CA30B40D68046943662A43A6
:1007A00083660A60A370426990F861301649146844
:1007B00013441D7A5B7B01EBC5051B026D6803F4D6
:1007C000E06343F064032B6090F8623013449D7C37
:1007D000DB7D01EBC5011B02496803F4E06343F0D4
:1007E00064030B6021685368194205D0036927220E
:1007F0005A70036904229A71036920225A710369AD
:1008000080229A7030BC7047A434000010B5026991
:10081000D378DBB2D90604463DD510215806D170F5
:1008200038D503F0040303F0FF02002B51D03D49FB
:10083000626E00230B7084F85D30002A5BD0904715
:1008400094F85D30002B56D02369D0229A7023692A
:1008500094F83B201A712369012284F85C2002225B
:10086000DA7010BD304B84F860009C424AD02F4BA8
:100870009C4252D094F8391013791F29DBB207D863
:100880002848007820B16018013184F839100376C7
:100890000223D37010BD5906C3D4917801F0100122
:1008A00001F0FF000029DDD013F001031ED194F800
:1008B0005C1094F85D00884281BF4B1C091984F8D4
:1008C0005C3091F83B3013712369D0229A70226911
:1008D000DEE7236984F83920C0229A702369114A1F
:1008E0001979012111700222DA7010BDC0239370B2
:1008F00022691379CCE70122002384F85D2084F873
:100900003B30A1E7626994F861300949134403223E
:10091000187A00F07DFD2269ACE7626994F86130D5
:100920000449F3E77C92FF1F3489FF1FA089FF1F52
:1009300095090000A10900000369DB7803F020039A
:1009400073B190F860300133DBB2012B80F8603076
:100950001AD9426990F861301344187A00F0D4BD76
:1009600070B5426903F0FF0590F861301344044606
:10097000187A00F0C9FDA36E5BB184F8385094F882
:100980003900BDE87040184790F85F30002BE0D088
:10099000704770BD0148FFF7CFBF00BF3489FF1F0C
:1009A0000148FFF7C9BF00BFA089FF1F2DE9F0472D
:1009B000374FDFF8E0903B68026982B0064600934B
:1009C000DDF800800021A025D3789B065BD53B682D
:1009D0000193019BC8EB03030F2BF5D949B1102BF1
:1009E000F2D000209070336980229A7002B0BDE886
:1009F000F087726996F8613013440521187A00F087
:100A0000EDFD726996F861301344012193F812A04C
:100A1000504600F0E3FD09240021504600F0CAFDD5
:100A20002B46013BFDD10121504600F0C3FD2B4672
:100A3000013BFDD1013CEFD1706996F86110014492
:100A40004FF4A0720C7A4B7B09EBC4011B0249687E
:100A500003F4E06343F064030B6096F862300344F0
:100A6000997CDB7D09EBC1011B02496803F4E0635B
:100A700043F064030B60013AFDD13269D3789B06E1
:100A80004FF00101A3D4012002B0BDE8F08700BF00
:100A90008092FF1FA4340000F0B503691222DA70BF
:100AA0000269937803F0200385B004460D46002BBD
:100AB0005ED0B42393703C4922690B680093009E7A
:100AC00005E00B680193019B9B1B042B42D8D37854
:100AD00003F0200303F0FF00002BF2D094F85D3008
:100AE000002B31D04FF0000E4FF0020C04EB0E0340
:100AF00093F83B3013710B680393039F206907E061
:100B00009B060DD50B680293029BDB1B052B28D897
:100B1000C378DBB203F0020202F0FF06002AEFD036
:100B200080F803C02669F378DBB2DF0632462DD4A5
:100B30009F062BD5DB0731D40EF1010E94F85D3002
:100B40005FFA8EFE7345D1D800201DBB002384F8C8
:100B50005E3004E09070236980229A70042005B012
:100B6000F0BD86702369802204209A7005B0F0BD24
:100B700003F0FF06FFF71AFF10B9042005B0F0BD1F
:100B8000236984F85F60B0229A7094E78023B37081
:100B90000420DAE726698023B370D7E7BEF1000F9F
:100BA0000CBF02200320F6E78092FF1F2DE9F041E1
:100BB00006690025122780F8385080F83950F77000
:100BC000D0F810C09CF802E00EF0200E88B0044669
:100BD000884615461E46BEF1000F49D0B4238CF856
:100BE0000230784B21691A680092DDF800E006E0D7
:100BF0001A6801920198CEEB0000042830D8C8781A
:100C000000F0200000F0FF070028F1D04FEA480272
:100C100042F00102D2B20A711A680292DDF808E0CD
:100C2000206906E01A6803920399CEEB01010529B9
:100C30002AD8C17801F0020101F0FF070029F1D0A4
:100C40004FF0020C80F803C02269D17811F011072F
:100C500022D12DBB002E0CBFA0238023937003E074
:100C60008F70236980229A70384608B0BDE8F08101
:100C70000EF0FF07FFF79AFE0028F5D0236984F8ED
:100C80005F70B0229A70ACE7877023698022384683
:100C90009A7008B0BDE8F081802393700027E3E7E5
:100CA000012D75D0A021917021690A79BE46674651
:100CB0004FF0A80C1A680492049805E01A6805928F
:100CC000059A121A052A4AD8CA7802F0020202F0DE
:100CD000FF08002AF2D0CF702169CA78D2B212F090
:100CE000100F08465AD1920658D5013DEDB2012D9C
:100CF00049D0BEF11F0F3BD90A79012DDAD11A680C
:100D00000692069D05E01A680792079A521B052A6B
:100D100046D8C27802F0020202F0FF01002AF2D0A7
:100D20000223C3702269D378DBB2D9063AD49B067A
:100D300034D5B023BEF11F0F93703FD8226904EB66
:100D40000E0312791A760EF1010E5FFA8EFE16B1BD
:100D5000236980229A7084F839E0774684E781F825
:100D60000280236980229A70774684F839E07BE715
:100D700004EB0E0291F8048082F818800EF1010E47
:100D80005FFA8EFEB9E781F802C021690846B0E734
:100D9000A82191702069BE460279B0E7774663E7E3
:100DA0008170DEE71021A023D170013BFDD12269C3
:100DB000937803F0F7037746937055E723691B791F
:100DC000C5E700BF8092FF1F0148FFF71FBD00BFAE
:100DD0003489FF1F0148FFF719BD00BFA089FF1F1D
:100DE000002280F84410027042608260C26002619A
:100DF00042618261C261026242628262C2620263D5
:100E000042638263C263026480F8452080F8462012
:100E100080F84720704700BF90F84530194214BF52
:100E200001200020704700BF70B5144C90F844308A
:100E300001255B000646204684F83B3084F85E506E
:100E400084F85D50FFF784FC29462046FFF724FE16
:100E50002B462A4696F844102046FFF7A7FE94F842
:100E6000392094F838309A4201D1FF2070BDFCD966
:100E7000E2182B4484F83830107E70BD3489FF1F8F
:100E800010B505210446FFF7CFFF002384F8450085
:100E900084F8463000284AD0C10705D563681BB1E5
:100EA0002046984794F84500820705D5A3681BB1F2
:100EB0002046984794F84500430705D5E3681BB1E1
:100EC0002046984794F84500010709D523690BB1DE
:100ED00020469847A3690BB12046984794F84500EF
:100EE000C20609D563690BB120469847A3690BB1C7
:100EF0002046984794F84500830609D5E3690BB16D
:100F000020469847636A0BB12046984794F84500FD
:100F1000410609D5236A0BB120469847636A0BB195
:100F20002046984794F84500020601D4012010BDE0
:100F300006212046FFF778FF84F846000028F5D008
:100F4000C30705D5A36A1BB12046984794F846000D
:100F5000810705D5E36A1BB12046984794F84600FF
:100F6000420705D5236B1BB12046984794F84600ED
:100F7000030705D5636B1BB12046984794F84600DC
:100F8000C10605D5A36B1BB12046984794F84600CF
:100F9000820605D5E36B1BB12046984794F84600BE
:100FA0004306C3D5236C002BC0D020469847BDE72D
:100FB00070B51D4C90F8443001265B000546204674
:100FC00084F83B3084F85E6084F85D60FFF7C0FB16
:100FD00031462046FFF760FD334695F84410204621
:100FE0000422FFF7E3FD94F8391094F83830994261
:100FF00011D013D9E0189A19D2B2007E85F84900B1
:10100000914284F838200DD922440233127E84F8AC
:10101000383085F84820B5F9480070BDFF2285F8C2
:101020004920F6E7FF22F4E73489FF1F0A21FFF782
:10103000BFBF00BF70B50C4C90F844301646012578
:101040005B00204684F83B3084F85E5084F85D50A5
:10105000FFF77EFB31462046FFF77AFB2946204604
:10106000BDE87040FFF718BD3489FF1F38B505464D
:101070000C460A460021FFF7DDFF85F8474038BDE2
:1010800008B580220021FFF7D5FF0A20BDE80840FF
:1010900000F0AABA41688368002918BF012213B181
:1010A00042F00202D2B2C36813B142F00402D2B2DB
:1010B000036913B142F00802D2B2436913B142F09E
:1010C0001002D2B2836913B142F01802D2B2C369DE
:1010D00013B142F02002D2B2036A13B142F04002CF
:1010E000D2B2436A13B142F06002D2B2836A13B142
:1010F00062F07F02D2B2C36A13B162F07F02D2B251
:10110000036B13B162F07F02D2B2436B13B162F092
:101110007F02D2B2836B13B162F07F02D2B2C36B93
:1011200013B162F07F02D2B2036C13B162F07F029E
:10113000D2B20421FFF77EBF0A461E21FFF77ABF15
:101140000A462021FFF776BFF0B5154C90F84430E1
:10115000826483B04FEA126E5B00C2F30747C2F3AA
:1011600007260125204684F83B308DF804E08DF8F1
:1011700007208DF805708DF8066084F85E5084F8BD
:101180005D50FFF7E5FA04220DEB02012046FFF760
:10119000C1FA29462046FFF77FFC03B0F0BD00BF2F
:1011A0003489FF1F0A460821FFF7CEBF0A460C21EB
:1011B000FFF7CABF0A461021FFF7C6BF0A4614212F
:1011C000FFF7C2BFF0B5124C90F84430826483B090
:1011D0005B00C2F30747C2F307260125204684F8C7
:1011E0003B308DF806208DF804708DF8056084F88A
:1011F0005E5084F85D50FFF7ABFA032201A9204648
:10120000FFF788FA29462046FFF746FC03B0F0BDF9
:101210003489FF1F0A461821FFF7D4BF844641EAEC
:10122000000313F003036DD1403A41D351F8043B5E
:1012300040F8043B51F8043B40F8043B51F8043BB0
:1012400040F8043B51F8043B40F8043B51F8043BA0
:1012500040F8043B51F8043B40F8043B51F8043B90
:1012600040F8043B51F8043B40F8043B51F8043B80
:1012700040F8043B51F8043B40F8043B51F8043B70
:1012800040F8043B51F8043B40F8043B51F8043B60
:1012900040F8043B51F8043B40F8043B51F8043B50
:1012A00040F8043B51F8043B40F8043B403ABDD2BF
:1012B000303211D351F8043B40F8043B51F8043B61
:1012C00040F8043B51F8043B40F8043B51F8043B20
:1012D00040F8043B103AEDD20C3205D351F8043BF0
:1012E00040F8043B043AF9D2043208D0D2071CBFBC
:1012F00011F8013B00F8013B01D30B8803806046E5
:10130000704700BF082A13D38B078DD010F003035A
:101310008AD0C3F10403D21ADB071CBF11F8013BCA
:1013200000F8013B80D331F8023B20F8023B7BE719
:10133000043AD9D3013A11F8013B00F8013BF9D244
:101340000B7803704B7843708B78837060467047DE
:10135000704700BF10B40F4B53F8302092F8804212
:101360002CB1012369B182F8803010BC704703EBC7
:10137000C0035B681A6841B922F002021A6010BC0F
:10138000704782F8003110BC704742F003021A60C7
:1013900010BC7047A43400001C4A02EBC0030129B2
:1013A0005B6811D004291BD052F83000002280F86D
:1013B000802229B1022920D0032922D01A60704747
:1013C0004FF480721A60704752F830004FF4A272E6
:1013D00080F880121A601A6822F020021A607047A2
:1013E00052F830104FF4A272012081F880021A6086
:1013F0001A6842F020021A60704740F203121A6025
:1014000070474FF481721A60704700BFA434000027
:10141000212848D8F8B5042A44D8DFE802F0484B20
:101420004E0345004FF410262B4B03EBC0030D4633
:101430005C68216811F4E06148D0284B284A2949AA
:10144000C3F89C2104F140422748C3F8A411A2F537
:101450009221264FC3F8A0017C292548C3F8A87122
:10146000C3F8AC012CD9A2F594237C2B2AD9A2F580
:1014700096237C2B28D9A2F598237C2B29D9A2F579
:101480009A227C2A27D81B4872B6236823F470233B
:1014900043F08072C4F384011643236040F8215066
:1014A000266062B6F8BD70474FF43026BCE74FF4B3
:1014B0000026B9E74FF44026B6E74FF42026B3E7FD
:1014C0000D48E1E70D48DFE70D48DDE7FFF764FF72
:1014D000B3E70C48D8E7F8BDA43400000082FF1F32
:1014E000F188FF1F9988FF1FC588FF1F6D88FF1FA8
:1014F0004188FF1FE48AFF1F0C8AFF1F448AFF1FD9
:10150000948AFF1FC48AFF1F1A4B03EBC00010B45C
:10151000426802F14043A3F592217C2923D9A3F527
:1015200094217C290DD9A3F596217C291FD9A3F5F7
:1015300098217C2919D9A3F59A237C2B11D80E4C1C
:1015400000E00E4C72B613680D4823F08773C2F3A7
:10155000840123F4803343F08073136044F8210046
:1015600062B610BC7047074CECE7074CEAE7074C43
:10157000E8E700BFA4340000E48AFF1F448AFF1F8D
:10158000511300000C8AFF1FC48AFF1F948AFF1F9B
:1015900030B4054B054D064C002210211A602A601C
:1015A0002060196030BC704714D0034004D0034061
:1015B00000D00340212801D8FFF7CCBE704700BF00
:1015C000212806D8044B53F8303093F80002C0B2FB
:1015D00070470020704700BFA4340000212801D8C4
:1015E000FFF7DABE704700BF2DE9F843054672B633
:1015F000204F214B214A1B683C68126862B6520199
:1016000002D5322B88BF013495B3C3F5BB331C4ED2
:10161000DFF86490DFF86480FF334FF47A72A6FB42
:10162000031302FB04F404EB931472B6D9F8001010
:101630003A68D8F800E062B6C1F5BB33FF33A6FBC9
:1016400003031EF0806FC4EB93134FF47A7002D043
:10165000322988BF013200FB0233B3F57A7F04D30D
:10166000013D05D004F57A74DFE701F04DFADCE7BF
:10167000BDE8F8838092FF1F18E000E004ED00E071
:10168000ABAAAAAAF8B52D4B2D49DFF8D0E0DFF8B8
:10169000D0C02C4E2C4D2D4C2D4A2E4F4FF4000017
:1016A00018604FF0807018604FF0007018604FF0B5
:1016B000806018604FF000601860002008602823E8
:1016C0004BF6FF71CCF80010CEF800303360136099
:1016D0002B6023603B60B3629362092245F8242C9F
:1016E000C4F8D80F05F57F65C7F8D41F07F5FF27A5
:1016F00007F5FA67C6F8F83F2B6006F5FF26C4F831
:10170000D42F05F5FD2504F5FF24386006F2F476A4
:101710001148316005F5FF6504F5FD642B60236019
:10172000026001F03FFA1920FFF75EFF00F03AFE79
:1017300040F21310BDE8F840FFF756BF08E100E0A3
:101740000480034014800340248003402C80034025
:101750001C8003403480034000800B400C80034019
:1017600008800340431E032B14D872B60A4951F86F
:10177000230068B170B4094C058834F8132046681A
:1017800041F82360521B24F8132062B670BC7047E6
:1017900062B6704700207047DC92FF1F8495FF1FE0
:1017A000013803280BD872B6074B53F8203043B1E9
:1017B00000205B680130002BFBD162B6704700202F
:1017C00070471846F9E700BF3093FF1F30B472B678
:1017D0002B4A13781D0706D52A4B196A002936D0E3
:1017E000996A002941D053781C0706D5254B196CFE
:1017F00000293ED0996C002939D09378190705D576
:10180000204B196E002936D0996E89B1D3781B0709
:1018100007D51C4BD3F880207AB3D3F88820112148
:101820003AB162B6184B00221A7030BC00F046BEC6
:101830000D21154C154D227843F8315003EBC103AF
:101840000830013A5860227062B630BC70470422FA
:101850000D4C0F4D217843F8325003EBC203083092
:101860004A1E5860227062B6EFE70521E1E70921C0
:10187000DFE70822ECE70C22EAE71022E8E700BFE6
:10188000B43500000080FF1F5993FF1FC8004000BF
:1018900088004000431E032B1DD81B4A400140F026
:1018A000100030B4104472B6184CE25C032A1BD806
:1018B000DFE802F00212151703220D88E25410F03F
:1018C000080F14BFC823882343EA05430831036087
:1018D000416062B630BC704708300222EDE7052255
:1018E000EBE708300422E8E7094A52F8230038B150
:1018F000084A52F82300416042F8231062B6E9E733
:1019000042F82310034AF7E70080FF1F6893FF1F88
:101910003093FF1F4093FF1F2DE9F04FDFF818B3FE
:10192000DFF818A387B044E0AD4F4FEA930807EB08
:10193000C809013ED9F8042003F00803F6B2A2F169
:10194000080003F0FF04002B40F0018157F8383005
:101950001B0C99B222F8081C002B00F0EF80A14B61
:1019600022F8064C42F8044C53F82620002A00F0D6
:10197000CF819D4D55F8263058609C4C45F8260087
:1019800034F81630194424F8161000F077FD0028BA
:1019900000F0C281964A974B19F0080F00F1080039
:1019A00018BF1346C9F8040047F8383008238BF8ED
:1019B00000309BF80040E4B265071CD58E4B1B78C5
:1019C000B3B18E490A7802F0FF0322B1013BDBB2CA
:1019D0000B7003B900BE8A490A7802F0FF032AB1EE
:1019E000013BDBB20B70002B00F0688100F0FEFDC4
:1019F00004238BF8003004F0080303F0FF02002BEF
:101A000000F0C9809AF80030DBB21E098CD19A0828
:101A1000DFF8CC9159F8321009EBC200C1F3830111
:101A2000013940680C2900F28580DFE801F07A7AFC
:101A30008383838383834683838307000168714D97
:101A40004068714F714E6860296088B240F28161D0
:101A50000024674B49F832304FF0010E88423C6059
:101A6000C9F81040C9F8184086F800E05C4A00F256
:101A7000E780B0F5D06F80F01B82B0F5817F00F079
:101A8000D98100F26981802800F02A82822840F002
:101A9000D781A98801F07F01042900F2D1815C4837
:101AA0005C4A890008441470547001788C0740F136
:101AB000608382F800E0022173E1534F3A682AB351
:101AC000554B524E554819883478057840298E4632
:101AD00045F0020828BF4FF0400E002C84F00104AE
:101AE0003470CEEB01010CBF8824C82409EBC80672
:101AF00089B285F0010544EA0E447260198049F804
:101B0000384072440570002965D03A603D4B1A8810
:101B1000B2F5A06F0ED100219A785970404B1A701F
:101B200008E038493F4C0D68A54200F098803049E4
:101B300049F832103C4A0123137037E72C4A2D4BE9
:101B400019F0080F18BF134647F838302EE700F099
:101B5000B5FC364A364952F82630002B00F0E380B7
:101B600058688C5D42F8260003F10802C9F8042089
:101B7000032C05D8DFE804F02C02292602228A551E
:101B80001A8819F0080F0CBF8823C82343EA0243C0
:101B900047F838300AE7E00700F19380210600F1AA
:101BA000D180A20706D5234A234913780220DBB24D
:101BB00013700870E30602D51F4B10221A7007B08D
:101BC000BDE8F08F04228A55DAE705228A55D7E767
:101BD00003228A55D4E7BEF1400F18BF002294E7D4
:101BE0000080FF1FDC92FF1F8892FF1F8495FF1F5C
:101BF000C8004000880040006493FF1FED92FF1F63
:101C0000D893FF1F5093FF1F8492FF1FEC92FF1F7A
:101C1000C02007405C93FF1F9892FF1F5893FF1F3F
:101C20009820074021090003942007403093FF1FAC
:101C30006893FF1F882007408020074090200740BE
:101C4000B0F5106F00F07C8140F2A38040F62112C5
:101C5000904240F07B82A54A012313706AE74C68EA
:101C6000A3498C427FF463AF0178A9297FF45FAF69
:101C7000417845297FF45BAF8178C2297FF457AF63
:101C8000C1786B297FF453AF9A489B4E0178347822
:101C900081F00105002C41F0020105700CBF882085
:101CA000C82084F0010449F8310009EBC1019348D0
:101CB0003470002505244D60047038E700F0FCFE08
:101CC00094E68F4B89488B491A614FF0020E80F8D9
:101CD00000E08C4F0A708C49196099608B4E8C4DD6
:101CE0008C4C9A610D213970FF213170DFF84CE284
:101CF00029702270884D894A8EF800109F27012490
:101D000006F8047C5D600470DA6007B0BDE8F08F0F
:101D100043F82600824D30E6824A47F838001378AF
:101D20000133137042E68B5D032B00F2BA8001A2EF
:101D300052F823F0AD190000AD1900008D1D000010
:101D4000871D00006F49724B80220D2008701A70A9
:101D5000A2077FF52FAF26E740F20232904240F013
:101D6000ED81AA8802F07F02042A69D86D88002DCF
:101D700066D16449CDF804E0920011440A7842F03B
:101D800002020A70C1E101238B550FE600238B5537
:101D90000CE6B0F5086F53D16349644A09781170B5
:101DA0007146ED888D4280F0E88252480478402DDB
:101DB000AE4644F0020C28BF4FF0400E02EB0E037B
:101DC00009EBCC01029301234A604FEA0E48CEEBA7
:101DD000050101930025C82242EA080384F00102AC
:101DE00049F83C3035700270DFF814C1424BDFF81F
:101DF000048149BBBEF1400F7FF42DAF42F0020CCD
:101E000009EBCC03029ADFF8F8E05A608DBB0D04B1
:101E100045F088059DF804304EF83C500A44337074
:101E20000470134640297FF416AF0021404A3B60FE
:101E3000118010E7AA8802F07F02042A40F28B8109
:101E4000304A0F23137006E74029D7D942F0020227
:101E50000CEBC200029E4660BDB19DF804503548AF
:101E60001D703346403988F8004040334CF832004A
:101E7000DCE79DF8043033700D04029B047045F0DC
:101E8000C8050B444EF83C50CCE79DF804501D703B
:101E9000029B1D4888F80040403940334CF832001E
:101EA000C4E719F0080F0CBF022303238B557DE50F
:101EB00021494A68002AC3D06C88B5F804E003E0E1
:101EC0000C314A68002ABBD00B88A342F8D14B885A
:101ED0007345F5D1240A032C0CBF1178098960E7FA
:101EE000124A0221147054705BE700BF942007402F
:101EF000010004005893FF1FEC92FF1FED92FF1F9B
:101F00000080FF1FC0200740880040008820074055
:101F100080200740982007409C92FF1FF092FF1FEF
:101F20008892FF1F5993FF1F6493FF1F5C93FF1F4D
:101F30009892FF1FC8004000B83500008C20074071
:101F4000B248116AAC7804700C0600F19881D9F897
:101F50002820AF49100600F1DB81D9F83020AC49C8
:101F6000120600F1D081D9F83820A949130600F1F2
:101F7000C581D9F84020A649150600F1BA81D9F8E3
:101F80004820A349140600F1AF81D9F85020A04998
:101F9000100600F1A481D9F858209D49120600F1DD
:101FA0009981D9F860209A49130600F18E81D9F8F9
:101FB00068209749150600F18381D9F8702094496B
:101FC000140600F17881D9F878209149100600F1C3
:101FD0006D81D9F880208E49120600F16181D9F80F
:101FE00088208B49130600F15581D9F89020884943
:101FF000150600F14981D9F898208549140600F1A9
:10200000FF808448844A854901908548854D864CE7
:10201000049700230596029580460F4616461D46F6
:102020000394306828B1446800F048FA2046002C38
:10203000F9D100233360029B38681A46002342F826
:10204000253028B1446800F039FA2046002CF9D137
:1020500000223A60019A98F800301146002241F8B7
:10206000042B039A0191023B4FF0000122F8151056
:10207000032B07D8DFE803F05D025D024FF0010398
:1020800088F800300135042D06F1040607F1040735
:1020900008F10108C5D1654C654D2278654B049F58
:1020A000059E0021100729701A7000F19280624984
:1020B00062780A700021C9F83010C9F83810110789
:1020C000DFF84C816ED4A2785C49DFF844810A7055
:1020D00000211207C9F85010C9F858104BD4E27803
:1020E00057494B4C0A7013074FF00001C9F87010A4
:1020F000C9F8781000F1AE8033780193002283F0A4
:102100000105C9F89020C9F898200021029188465D
:102110008E460A464B48047844F0020C09EBCC0387
:102120000393019B002B039B5A600CBF8822C8229B
:1021300052E64FF0000388F80030A3E7B0F5A06F37
:102140007FF47EAE012300250193DEE740F62122D5
:102150009042F7D074E66D88002D7FF471AE3A4955
:10216000CDF804E0920011440A7822F002020A70CD
:10217000CBE7022115E600F081F9002800F0EB80A2
:102180000830324AC8F86400C8F8602000F076F9D8
:10219000002800F0DA8008302D4AC9F86C00C9F830
:1021A00068209CE700F06AF9002800F0E080083021
:1021B000264AC8F84400C8F8402000F05FF900281B
:1021C00000F0CF800830224AC9F84C00C9F84820F6
:1021D00079E700F053F9002800F0A58008301B4A89
:1021E000C9F82400C9F8202000F048F9002800F0C0
:1021F00094800830164AC9F82C00C9F8282056E700
:10220000D1F89C00083800F059F9FAE66493FF1FF2
:102210000080FF1F4093FF1FDC92FF1F3093FF1FC2
:102220006893FF1F8892FF1F8495FF1FB43500003D
:102230005993FF1FC4200740C8200740CC20074007
:10224000D02007405893FF1FC0200740880040005F
:10225000C800400000F012F9002870D008304F4A42
:10226000C4F88400C4F8802000F008F9002860D089
:1022700008304B4AC9F88C00C9F888203CE7506AFE
:10228000083800F01BF962E6D1F89400083800F035
:1022900015F9B0E6D1F88C00083800F00FF9A4E683
:1022A000D1F88400083800F009F998E6C86F0838BA
:1022B00000F004F98DE6486F083800F0FFF882E678
:1022C000C86E083800F0FAF877E6486E083800F073
:1022D000F5F86CE6C86D083800F0F0F861E6486D76
:1022E000083800F0EBF856E6C86C083800F0E6F85D
:1022F0004BE6486C083800F0E1F840E6C86B083857
:1023000000F0DCF835E6486B083800F0D7F82AE62C
:10231000C86A083800F0D2F81FE62A78C9F8280001
:1023200001322A70C3E62A78C9F8200001322A70E7
:102330005AE72A78C9F8880001322A70DCE62A7840
:10234000C4F8800001322A708EE72A78C9F8680044
:1023500001322A70C3E62A78C8F8600001322A7078
:1023600014E72A78C9F8480001322A70ABE62A78C7
:10237000C8F8400001322A701FE740298E4628BF66
:102380004FF0400E02EB0E0302930123CEEB01014E
:102390004FEA0E4800250193BCE600BF88004000CC
:1023A000C8004000F8B500F045FE294B29482A4CEA
:1023B0002A4F2B4DDFF8BCC0DFF8BCE0294E0022CD
:1023C0001A605A609A60DA601A615A619A61DA6139
:1023D0001A625A629A62DA621A635A639A63DA6319
:1023E0001A645A649A64DA641A655A659A65DA65F9
:1023F0001A665A669A66DA661A675A679A67DA67D9
:10240000C3F880200168C3F8842041F48021016072
:10241000C3F307212170C3F30740134938701B0E23
:102420002B70FF238CF80030104D8EF800301048D0
:102430000B700123337084F8642070264FF400740D
:10244000102207F82C3C2E70046081F8F820F8BDAB
:102450000080FF1F348004409C200740B0200740CC
:10246000B4200740942007401020074049E400E0D2
:1024700008E100E0802007408820074072B60D4840
:102480000268B2FA82F30F2B10DC4FF00041D94002
:1024900022EA0102026062B6074803EBC303DB00D5
:1024A000C2180021C15010465160704762B600202A
:1024B000704700BFEC8AFF1FBC83FF1F0D4B0E4A05
:1024C000C31AA2FB03231B090F2B0CD80B4A12784B
:1024D00052B972B60A484FF00041026821FA03F37C
:1024E0001A43026062B67047064A1278002AF0D09A
:1024F000FFF76CB9BC83FF1F398EE3385993FF1F78
:10250000EC8AFF1F6493FF1F38B50E4B0E4C1B68FF
:10251000218805468BB1B1F5917F05D20B4A4B1C42
:1025200055549BB2238038BD0022084898470021AB
:10253000064A55540123238038BDB1F5917FEDD370
:1025400038BD00BF9093FF1F8E95FF1F9495FF1F0E
:102550002DE9F843214E224F3168012380463B701C
:10256000B1B1204D4B8801EB8302013300240F2BC6
:10257000C2F808802C7004D84B8000233B70BDE863
:10258000F88340230B800320FFF784F93460F4E7DD
:10259000DFF8549099F80030002BF0D0114D45F63B
:1025A000215408E0013C12D02B7883B900F0ACFA3A
:1025B00099F800307BB10320FFF7F2F80528F1D835
:1025C000FFF75CFF014630600028EBD0CAE701232B
:1025D0002B70BDE8F883BDE8F88300BFAC93FF1F04
:1025E0008093FF1FB093FF1F6493FF1F38B5084B04
:1025F0001C7824B9074D296809B14B8803B938BD47
:102600009B000B800320FFF745F92C6038BD00BF0D
:102610008093FF1FAC93FF1F2DE9F041AD4E33684F
:102620000746002B00F092801D885A88910803EB22
:1026300081010432AA428C6842D25A8004F00F060B
:102640004FEA1428A449A6F1080208F00F00C4F3C9
:102650000313062A00F101050B701AD9B31E012BD2
:102660005FFA88F04ED9052E48D0042E00F0A481E0
:10267000731F022B7FD90F2E0ED1F72842D8F028D6
:1026800002D0964B1B883BB1FFF73EFF0020BDE810
:10269000F08127B1BD4202D00020BDE8F081082EB4
:1026A000C4F3033300F08780092E11D00A2E40F0C6
:1026B00094800A2BF0D18A4B8A4A1B68A02181E0C2
:1026C0001846FFF7FBFE0420FFF74CF83060B5E733
:1026D000092BE1D1270E00F07B81834B814A1B68D7
:1026E0009021C4F307461170EDB2FCB2002B00F04C
:1026F0009D80224631462846984797E0F02843D9E6
:10270000F72841D0F1380E28C6D801A353F820F09D
:10271000C7280000AB280000992800009926000077
:10272000992600008B280000992600006B290000E4
:1027300099260000352900004F2900007328000069
:10274000992600005B2800003F280000674B1B789B
:10275000002BA1D00420FFF705F8034630600028C5
:102760009AD00588002D7FF460AFFFF7A7FE356093
:102770002846BDE8F081FFF7C7FEC4F30740FFF726
:10278000C3FE072E02D1200EFFF7BEFE534B584A60
:10279000198858481468584D524A017000270E0A8B
:1027A000F0201F802E7010700CB301225348A047F8
:1027B0000120BDE8F081082B7FF46EAF504B494AF1
:1027C0001B688021C4F307461170EDB2240E6BB371
:1027D000284622463146984728E00B2E11D10B2B74
:1027E0007FF45AAF474B3F4A1B68B021EAE7464B9C
:1027F0001B68002B00F0FB80404898470120BDE893
:10280000F0810C2E40F000810C2B7FF445AF3F4B44
:10281000344A1B68C0211170EDB2C4F30746002B87
:1028200000F0C88028463146240E98473849314A7E
:10283000314B0D7016701C700120BDE8F081354BD6
:102840001B68002B00F0D6809847C4F30746254B41
:10285000EDB2240E83F80080E8E72F4B1B68002BB5
:10286000F2D12E4B1B68A3B1FE209847C4F3074654
:10287000EDE72B4B1B68002BE6D1284B1B6843B1BF
:10288000FC209847C4F30746E1E7264B1B68002B62
:10289000DAD1C4F30746DAE7234B1B68C4F30746D3
:1028A000002BD4D030469847D1E7204B1A68002A35
:1028B000EFD0260C630C06F07F0003F47E53184320
:1028C000F6B29047C3E71A4B1B68C4F30746002BC8
:1028D000E8D1BCE7B893FF1F9295FF1F8E95FF1FAD
:1028E0009493FF1F8C95FF1FC893FF1F6493FF1FD6
:1028F0009093FF1F9095FF1F9195FF1F9495FF1FC9
:10290000C093FF1FC493FF1FA893FF1F8493FF1F53
:102910009395FF1F7093FF1F7493FF1F7893FF1F02
:10292000B493FF1FA493FF1FBC93FF1F8C93FF1F43
:10293000A093FF1F3F4B1B68002B85D13E4B1B68AC
:10294000002BA6D0FA209847C4F307467FE73B4BFD
:102950001B68002B7FF478AF374B1B68002B98D097
:10296000FB209847C4F3074671E7354B1B68002BE3
:102970007FF46AAF304B1B68002B8AD0F820984751
:10298000C4F3074663E70E2B7FF486AE2D4A2E4B29
:102990001268E0211970002A47D0260C610C06F05D
:1029A0007F0301F47E511943EDB2A1F50051284691
:1029B0009047F6B2240E39E7FFF7A6FDC4F30740AF
:1029C000FFF7A2FD200EFFF79FFD0020BDE8F0817C
:1029D0001E4B1D4A1B6880211170EDB2C4F30746DF
:1029E00083B1314628463A4698473C461EE70120C7
:1029F000BDE8F081104B1B68002B3FF44AAFFF206D
:102A0000984746E71C4611E70D2EBCD10D2B7FF4ED
:102A100043AE0F4B0C4A1B68D0211170EDB2C4F3CA
:102A20000746002B7FF4FEAEC4E7C4F30746EDB2C1
:102A3000240EFBE69C93FF1F7893FF1F7C93FF1FE0
:102A40006C93FF1F8893FF1F8C95FF1FC093FF1F80
:102A50009893FF1F38B5164D2868E0B10188448867
:102A6000A14213DD03191B7A83B104F10803C218D4
:102A70000C1B002302E012F8011F21B10133A34215
:102A8000F9D1204638BD1C46204638BDFFF716FD5B
:102A90000020286038BD074B1B780BB9002038BDDB
:102AA0000220FEF75FFE28600028D7D1F6E700BFBE
:102AB000D493FF1F6493FF1F0D4B1B78BBB910B558
:102AC0000C4C216803F0FF024B883F2B07DC0733D7
:102AD0000B4401F1470003F8012F8342FBD140234F
:102AE0000B800120FEF7D6FE0023236010BD704747
:102AF000CC93FF1FD093FF1F08B5FDF721FDFDF715
:102B000099FD00F001F8FAE738B5224C237803B1BB
:102B100038BD01232370FFF79DFF70BB00F0E2F882
:102B200040BB00F075F910BB00F008FAE0B90023D3
:102B30002370EFF30583002BEAD1EFF3108172B617
:102B4000154B1868E0B1154C2278CAB945691D606B
:102B500001232370C5B1AA6101B962B6002545778A
:102B6000836898472570D3E700F0A2FBDFE700F009
:102B70009DFBD9E700F098FBD3E700F09BFBCDE786
:102B80000029C5D162B638BD054B1D600029E5D1CD
:102B9000E3E700BFD993FF1F7895FF1F7C95FF1FC8
:102BA0007495FF1F30B42948294A2A4B2A4D6024C6
:102BB000E121047011701B78284C082B30D00A2BAF
:102BC0002748284937D00C2B0CBF35223D22122331
:102BD0002A60236002600B60234B24491B78244A3F
:102BE000BBB101230B601360224B23491B78234A9E
:102BF000012B26D9042B0FD9082B1ED9102B94BFDB
:102C0000862387230B6013601D4B01221A7030BC92
:102C100070470B601360E7E784230B601360F3E7F2
:102C200000F58E200F490830012213232A6023600B
:102C300002600B60D0E73922F7E785230B60136051
:102C4000E2E780230B601360DEE700BF004007402F
:102C500001400740F08AFF1F08B003400CB003405A
:102C600008B00B400CB00B40DB93FF1F20B00340BB
:102C700020B00B40F18AFF1F24B0034024B00B406A
:102C8000DA93FF1F08B5104C08E0236859050DD4EE
:102C900023681A050FD42368DB0411D42368580372
:102CA000F3D5FEF739FE23685905F1D500F02AF86F
:102CB00023681A05EFD500F0BBF82368DB04EDD5D7
:102CC00000F04CF9EAE700BF3480044008B5FFF794
:102CD000D9FF00BF014B10221A8070470020054029
:102CE000704700BF054A064B10781B78C0B2DBB2B4
:102CF000984238BF4030C01A704700BFE093FF1FB2
:102D0000E193FF1FF0B4384B1A7912F0300F2CD03A
:102D100072B6997D01F0FF0200293DD062B6334FB3
:102D2000334938780D78334E1C46C0B2EDB2431C9F
:102D3000402BE17928BF0023AB4202F1FF32C9B238
:102D40001CBFF154184612F0FF02F0D12A4B1B6849
:102D5000C2B23A704BB1A84236BFC5F14005401B24
:102D600040192728C4BF01221A701F49CA78D2B25D
:102D7000150616D452060DD51B4B1B795B0609D5DB
:102D80001E4B1F491B6800220A7003B11A70164BB4
:102D90003C22DA70F0BC70474022D9795A7462B68E
:102DA000E3E70B791C06E5D5164B174E1C783378F4
:102DB000E4B2DBB29C420ED0144D01E0A3420AD033
:102DC0000133402B28BF00230879E85CC0B2C871EA
:102DD000087D0728F2D9DBB2034933700B79180656
:102DE00044BF7C23CB70C5E700A00640E093FF1FE3
:102DF000E193FF1F2494FF1FDC93FF1F6894FF1FC4
:102E00006494FF1F6C94FF1F6594FF1FE493FF1FE2
:102E1000054A064B10781B78C0B2DBB2984238BF27
:102E20004030C01A704700BFE094FF1F7594FF1F29
:102E3000F0B4384B1A7912F0300F2CD072B6997D5D
:102E400001F0FF0200293DD062B6334F3349387894
:102E50000D78334E1C46C0B2EDB2431C402BE179D5
:102E600028BF0023AB4202F1FF32C9B21CBFF154AC
:102E7000184612F0FF02F0D12A4B1B68C2B23A701A
:102E80004BB1A84236BFC5F14005401B4019272869
:102E9000C4BF01221A701F49CA78D2B2150616D4CF
:102EA00052060DD51B4B1B795B0609D51E4B1F49DE
:102EB0001B6800220A7003B11A70164B3C22DA70AC
:102EC000F0BC70474022D9795A7462B6E3E70B79B7
:102ED0001C06E5D5164B174E1C783378E4B2DBB2EE
:102EE0009C420ED0144D01E0A3420AD00133282B9E
:102EF00028BF00230879E85CC0B2C871087D0728A4
:102F0000F2D9DBB2034933700B79180644BF7C2336
:102F1000CB70C5E700B00640E094FF1F7594FF1F1B
:102F2000A094FF1F7094FF1FE494FF1F7494FF1F71
:102F3000E894FF1FE194FF1F7894FF1F054A064B9A
:102F400010781B78C0B2DBB2984238BF4030C01A4C
:102F5000704700BFF094FF1FF194FF1F30B42B4B5C
:102F60001A7994061FD52A48DA790378294901335A
:102F70003F2B0978C8BF00238B42D2B203D0264C26
:102F8000D9B2E2540170254A116861B1244A12781D
:102F9000D2B2934236BFC2F140029B1A9B18272B34
:102FA000C4BF01230B70194AD378DBB2180611D4C1
:102FB0005A060DD5154B1B795B0609D5194B1A49D5
:102FC0001B6800220A7003B11A70104B2C22DA70B1
:102FD00030BC704711790906EAD5144910480C78BD
:102FE0000178C9B28C420DD04A1C272A84BF002127
:102FF0000A460F4D054C98BFD1B2AA5CD2B2E2711D
:103000000170D5E76C21D170D2E700BF00C0064047
:10301000F094FF1FF194FF1F1C95FF1FEC94FF1FFE
:103020005D95FF1F6095FF1F5C95FF1F6495FF1F57
:10303000F494FF1F70B584B072B6194B194D1A483D
:10304000702241260F2480211A702E701A460470B7
:10305000197013781B06FCD5144B186862B6144B14
:10306000144C984298BF00EB800001A998BF400023
:103070000A2200F021F901A92046002311F8012BB2
:1030800001333AB10A2B20F8022FF7D1162323700F
:1030900004B070BD5B00DBB2237004B070BD00BF34
:1030A0000000024007000240060002400800024003
:1030B0007F969800BC8BFF1F10B4EFF3108272B69E
:1030C000437F33B9017F012907D003290FD00123A2
:1030D000437702B962B610BC7047124C2168A1B1A7
:1030E000114943610B68836108605861EFE70F4C39
:1030F000216881B10E4943610B68836108605861A2
:103100000C4B4FF080511960E1E7074B4161816141
:1031100020601860DBE7064B416181612060186028
:10312000EEE700BF7895FF1F7495FF1F6895FF1F9E
:103130006C95FF1F04ED00E010B4047F4160022C89
:10314000C26002D010BCFFF7B7BF836810BC18473D
:1031500070B5EFF3108272B60C4C206880B10C4E43
:1031600000254369236073B19D6102B962B645775A
:1031700083689847EFF3108272B620680028F0D178
:1031800002B962B670BD3360EFE700BF6895FF1FFC
:103190006C95FF1FFFF7DCBF184A30B41468002C91
:1031A00027D0036821688B420ED2CB1A002184609D
:1031B000C1602360E06010600223037530BC70477B
:1031C00011688B42144608D3A2685B1A0360002A78
:1031D000F6D18260C460A060EEE7D268C26084600D
:1031E000E060C568CB1A0222A8602360027530BC7B
:1031F00070478460C4601060DEE700BF7095FF1FF9
:10320000F8B5224E34682CB32368002B3AD1204FF6
:103210001D4604E03468ECB12368002B32D1A3686A
:1032200003B1DD6020693360036825751B68BB420C
:1032300021D1037F4560022BC46020D0FFF73CFF03
:103240006368002BE6D023602046FFF7A5FF3468B3
:10325000002CE1D1EFF3108372B60E4A0021106802
:10326000116003B962B628B18468FFF795FF204664
:103270000028F9D1F8BD224600219847E0E783688D
:103280009847DDE7013B2360E4E700BF7095FF1F2F
:10329000393100008095FF1F024A13680133136023
:1032A000FFF7AEBF8092FF1F704700BF704700BF9F
:1032B000704700BF704700BFF0B44D1E2E4600247B
:1032C00000E00134B0FBF2F302FB1300092800F127
:1032D00030078ABF3730F8B2C0B206F8010F18467F
:1032E000002BEED10A1953704CB1107815F8016F0C
:1032F00028700133E01A834202F80169F5DB0846C1
:10330000F0BC704770B50F4E0F4D761BB61018BF4E
:10331000002405D0013455F8043B9847A642F9D162
:103320000A4E0B4D761B00F07FF9B61018BF002433
:1033300006D0013455F8043B9847A642F9D170BD38
:1033400070BD00BF34360000343600004036000047
:1033500034360000024B13B1024800F005B8704744
:103360000000000075330000002301461A4618468D
:1033700000F014B838B5074D074C2C1BA41005D02D
:10338000013C55F8043D9847002CF9D1BDE8384080
:1033900000F056B900000000000000002DE9F047E1
:1033A000254C2568D5F848410646884692469946F8
:1033B000C4B360681F2817DC431C76B104EB80059A
:1033C0000122C5F888A0D4F8881182401143022E4A
:1033D000C4F88811C5F808911ED00230636044F823
:1033E00020800020BDE8F087144B03B34FF4C87071
:1033F000AFF300800446D0B1D5F84831002780E80B
:103400008800C5F8484138460123C4F88871C4F8DB
:103410008C71002EE1D0D1E7D4F88C110A43C4F8A6
:103420008C21DAE705F5A674C5F84841C1E74FF0ED
:10343000FF30BDE8F08700BF243600000000000028
:1034400034800440400000001211FFFFFF02020020
:1034500000001310FFFFFF02020000001800000030
:1034600034800440800000001EFFFFFFFF020000C8
:1034700000001DFFFFFFFF02000000001900000018
:1034800000000000000000005107000015070000C8
:10349000C906000011070000CD060000D906000093
:1034A000F90600004008FE4340A004404408FE43E3
:1034B00044A004400018FE4300C004403000FE4316
:1034C000309004403400FE43349004401C18FE4306
:1034D0001CC004401018FE4310C004400818FE43EE
:1034E00008C004400C18FE430CC004400C10FE43FE
:1034F0000CB004401010FE4310B004401810FE43FE
:1035000018B004401C10FE431CB004401410FE43CD
:1035100014B004400418FE4304C004400010FE43ED
:1035200000B004400008FE4300A004400408FE432D
:1035300004A004400C08FE430CA004400808FE430D
:1035400008A004401418FE4314C004401818FE4399
:1035500018C004400410FE4304B004400810FE43A9
:1035600008B004401400FE43149004404C08FE438D
:103570004CA004400420FE4304D004402410FE4329
:1035800024B004402010FE4320B004402810FE4325
:1035900028B004402C10FE432CB004400020FE4311
:1035A00000D004404808FE4348A004401000FE43F9
:1035B000109004401519151900010000F48AFF1F2E
:1035C0001200000000020000208BFF1F73000000AB
:1035D00000220100948BFF1F210000000021010048
:1035E0007C8BFF1F0900000000030000B88BFF1F49
:1035F0000000000001030904088BFF1F0000000009
:10360000020309041C89FF1F0000000003030904D2
:10361000BC8BFF1F00000000000000000000000045
:1036200000000000D88BFF1FF8B500BFF8BC08BC35
:103630009E46704755330000350400006D060000BB
:04364000F8B500BF1A
:1036440038B5084B1C681C6054B1074D94FAA4F3B8
:10365400B3FA83F355F823309847631E1C40F5D121
:1036640038BD00BFA0D00440E48AFF1F38B5084B22
:103674001C681C6054B1074D94FAA4F3B3FA83F3A5
:1036840055F823309847631E1C40F5D138BD00BF60
:10369400A0C00440C48AFF1F38B5084B1C681C60D6
:1036A40054B1074D94FAA4F3B3FA83F355F82330D5
:1036B4009847631E1C40F5D138BD00BFA0B004403C
:1036C400948AFF1F38B5084B1C681C6054B1074D21
:1036D40094FAA4F3B3FA83F355F823309847631E9E
:1036E4001C40F5D138BD00BFA0A00440448AFF1F90
:1036F40038B5084B1C681C6054B1074D94FAA4F308
:10370400B3FA83F355F823309847631E1C40F5D170
:1037140038BD00BFA09004400C8AFF1F18034D0061
:1037240061006300680069006E0061007400690054
:103734006F006E008834000000000000E803000001
:10374400000000000060064040340000000000005B
:103754000000000000000000000000000000000065
:103764000000000000000000000000000000000055
:103774000000000000000000000000000000000045
:103784000000000000000000000000000000000035
:103794000000000000000000000000000000000025
:1037A4008834000000000000E8030000000000006E
:1037B40000700640603400000000000000000000BB
:1037C40000000000000000000000000000000000F5
:1037D40000000000000000000000000000000000E5
:1037E40000000000000000000000000000000000D5
:1037F40000000000000000000000000000000000C5
:103804000000000000000000000000005113000050
:103814005113000051130000511300005113000014
:103824005113000051130000511300005113000004
:1038340051130000511300005113000051130000F4
:1038440051130000511300005113000051130000E4
:1038540051130000511300005113000051130000D4
:1038640051130000511300005113000051130000C4
:1038740051130000511300005113000051130000B4
:1038840051130000511300005113000051130000A4
:103894005113000051130000511300005113000094
:1038A4005113000051130000511300005113000084
:1038B4005113000051130000511300005113000074
:1038C4005113000051130000511300005113000064
:1038D4005113000051130000511300005113000054
:1038E400511300005113000051130000FFFFFFFFAC
:1038F4000A0400001201100100000040C0168504F3
:1039040075020102030100001803540065006500FC
:103914006E00730079006400750069006E006F002A
:1039240009027300020100C032090400000201030D
:1039340000000724010001250006240201010006FD
:1039440024020202000924030103010201000924E4
:103954000302040101010009050402400000000003
:103964000525010101090583024000000000052529
:1039740001010309040100020300000009211101EF
:10398400000122210007058103400001070502030D
:103994002000020006C9FF0904A15C750815002671
:1039A400FF009540097581029520097691029504DE
:1039B4000976B102C0000000040309040C030000EE
:1039C40000000000000000000000000000000000F3
:1039D400000000000000000000000000C48EFF1F73
:1039E4002C8FFF1F948FFF1F0000000000000000B9
:1039F40000000000000000000000000000000000C3
:103A040000000000000000000000000000000000B2
:103A140000000000000000000000000000000000A2
:103A24000000000000000000000000000000000092
:103A34000000000000000000000000000000000082
:103A44000000000000000000000000000000000072
:103A54000000000000000000000000000000000062
:103A64000000000000000000000000000000000052
:103A74000000000000000000000000000000000042
:103A840001000000000000000E33CDAB34126DE6DF
:103A9400ECDE05000B000000000000000000000048
:103AA4000000000000000000000000000000000012
:103AB4000000000000000000000000000000000002
:103AC40000000000000000000000000000000000F2
:103AD40000000000000000000000000000000000E2
:00000001FF
